{
  "_format": "hh-sol-artifact-1",
  "contractName": "MultiVaultFactory",
  "sourceName": "contracts/MultiVaultFactory.sol",
  "abi": [
    {
      "anonymous": false,
      "inputs": [
        {
          "indexed": true,
          "internalType": "address",
          "name": "vaultAddress",
          "type": "address"
        },
        {
          "indexed": false,
          "internalType": "string",
          "name": "name",
          "type": "string"
        },
        {
          "indexed": false,
          "internalType": "address[]",
          "name": "members",
          "type": "address[]"
        },
        {
          "indexed": true,
          "internalType": "address",
          "name": "creator",
          "type": "address"
        },
        {
          "indexed": false,
          "internalType": "uint256",
          "name": "timestamp",
          "type": "uint256"
        }
      ],
      "name": "VaultCreated",
      "type": "event"
    },
    {
      "inputs": [
        {
          "internalType": "uint256",
          "name": "",
          "type": "uint256"
        }
      ],
      "name": "allVaults",
      "outputs": [
        {
          "internalType": "address",
          "name": "",
          "type": "address"
        }
      ],
      "stateMutability": "view",
      "type": "function"
    },
    {
      "inputs": [
        {
          "internalType": "string",
          "name": "_name",
          "type": "string"
        },
        {
          "internalType": "address[]",
          "name": "_members",
          "type": "address[]"
        }
      ],
      "name": "createVault",
      "outputs": [
        {
          "internalType": "address",
          "name": "vaultAddress",
          "type": "address"
        }
      ],
      "stateMutability": "nonpayable",
      "type": "function"
    },
    {
      "inputs": [],
      "name": "getAllVaults",
      "outputs": [
        {
          "internalType": "address[]",
          "name": "",
          "type": "address[]"
        }
      ],
      "stateMutability": "view",
      "type": "function"
    },
    {
      "inputs": [],
      "name": "getTotalVaults",
      "outputs": [
        {
          "internalType": "uint256",
          "name": "",
          "type": "uint256"
        }
      ],
      "stateMutability": "view",
      "type": "function"
    },
    {
      "inputs": [
        {
          "internalType": "address",
          "name": "_user",
          "type": "address"
        }
      ],
      "name": "getUserVaultCount",
      "outputs": [
        {
          "internalType": "uint256",
          "name": "",
          "type": "uint256"
        }
      ],
      "stateMutability": "view",
      "type": "function"
    },
    {
      "inputs": [
        {
          "internalType": "address",
          "name": "_user",
          "type": "address"
        }
      ],
      "name": "getUserVaults",
      "outputs": [
        {
          "internalType": "address[]",
          "name": "",
          "type": "address[]"
        }
      ],
      "stateMutability": "view",
      "type": "function"
    },
    {
      "inputs": [
        {
          "internalType": "address",
          "name": "_vaultAddress",
          "type": "address"
        }
      ],
      "name": "getVaultInfo",
      "outputs": [
        {
          "internalType": "string",
          "name": "name",
          "type": "string"
        },
        {
          "internalType": "address[]",
          "name": "members",
          "type": "address[]"
        },
        {
          "internalType": "uint256",
          "name": "balance",
          "type": "uint256"
        },
        {
          "internalType": "uint256",
          "name": "proposalCounter",
          "type": "uint256"
        }
      ],
      "stateMutability": "view",
      "type": "function"
    },
    {
      "inputs": [
        {
          "internalType": "uint256",
          "name": "_start",
          "type": "uint256"
        },
        {
          "internalType": "uint256",
          "name": "_end",
          "type": "uint256"
        }
      ],
      "name": "getVaultsByRange",
      "outputs": [
        {
          "internalType": "address[]",
          "name": "",
          "type": "address[]"
        }
      ],
      "stateMutability": "view",
      "type": "function"
    },
    {
      "inputs": [
        {
          "internalType": "address",
          "name": "_vault",
          "type": "address"
        }
      ],
      "name": "isValidVault",
      "outputs": [
        {
          "internalType": "bool",
          "name": "",
          "type": "bool"
        }
      ],
      "stateMutability": "view",
      "type": "function"
    },
    {
      "inputs": [
        {
          "internalType": "address",
          "name": "",
          "type": "address"
        }
      ],
      "name": "isVault",
      "outputs": [
        {
          "internalType": "bool",
          "name": "",
          "type": "bool"
        }
      ],
      "stateMutability": "view",
      "type": "function"
    },
    {
      "inputs": [
        {
          "internalType": "address",
          "name": "",
          "type": "address"
        },
        {
          "internalType": "uint256",
          "name": "",
          "type": "uint256"
        }
      ],
      "name": "userVaults",
      "outputs": [
        {
          "internalType": "address",
          "name": "",
          "type": "address"
        }
      ],
      "stateMutability": "view",
      "type": "function"
    }
  ],
  "bytecode": "0x6080604052348015600f57600080fd5b50612b188061001f6000396000f3fe608060405234801561001057600080fd5b50600436106100a95760003560e01c806390229af71161007157806390229af7146101715780639094a91e1461019457806397331bf9146101bf5780639c841fef146101c7578063e7f3c69c146101da578063fc4e5007146101ed57600080fd5b80634d93ef71146100ae5780635486f100146100d757806364219450146100e9578063652b9b4114610125578063828edbe814610148575b600080fd5b6100c16100bc366004610857565b610200565b6040516100ce91906108be565b60405180910390f35b6000545b6040519081526020016100ce565b6101156100f73660046108f0565b6001600160a01b031660009081526002602052604090205460ff1690565b60405190151581526020016100ce565b6101156101333660046108f0565b60026020526000908152604090205460ff1681565b6100db6101563660046108f0565b6001600160a01b031660009081526001602052604090205490565b61018461017f3660046108f0565b610365565b6040516100ce949392919061095d565b6101a76101a2366004610996565b610447565b6040516001600160a01b0390911681526020016100ce565b6100c1610471565b6101a76101d53660046109af565b6104d3565b6100c16101e83660046108f0565b61050b565b6101a76101fb366004610ae4565b610581565b60608183106102475760405162461bcd60e51b815260206004820152600e60248201526d52616e676f20696e76616c69646f60901b60448201526064015b60405180910390fd5b60005482111561028e5760405162461bcd60e51b815260206004820152601260248201527146696e2066756572612064652072616e676f60701b604482015260640161023e565b600061029a8484610ba1565b905060008167ffffffffffffffff8111156102b7576102b76109db565b6040519080825280602002602001820160405280156102e0578160200160208202803683370190505b50905060005b8281101561035a5760006102fa8288610bb4565b8154811061030a5761030a610bc7565b9060005260206000200160009054906101000a90046001600160a01b031682828151811061033a5761033a610bc7565b6001600160a01b03909216602092830291909101909101526001016102e6565b509150505b92915050565b6001600160a01b0381166000908152600260205260408120546060918291819060ff166103cc5760405162461bcd60e51b81526020600482015260156024820152744e6f20657320756e207661756c742076616c69646f60581b604482015260640161023e565b6000859050806001600160a01b0316637f98aa716040518163ffffffff1660e01b8152600401600060405180830381865afa15801561040f573d6000803e3d6000fd5b505050506040513d6000823e601f3d908101601f191682016040526104379190810190610c44565b9450945094509450509193509193565b6000818154811061045757600080fd5b6000918252602090912001546001600160a01b0316905081565b606060008054806020026020016040519081016040528092919081815260200182805480156104c957602002820191906000526020600020905b81546001600160a01b031681526001909101906020018083116104ab575b5050505050905090565b600160205281600052604060002081815481106104ef57600080fd5b6000918252602090912001546001600160a01b03169150829050565b6001600160a01b03811660009081526001602090815260409182902080548351818402810184019094528084526060939283018282801561057557602002820191906000526020600020905b81546001600160a01b03168152600190910190602001808311610557575b50505050509050919050565b60006002825110156105d55760405162461bcd60e51b815260206004820181905260248201527f53652072657175696572656e20616c206d656e6f732032206d69656d62726f73604482015260640161023e565b60008351116106265760405162461bcd60e51b815260206004820152601e60248201527f456c206e6f6d627265206e6f20707565646520657374617220766163696f0000604482015260640161023e565b6000805b835181101561067657336001600160a01b031684828151811061064f5761064f610bc7565b60200260200101516001600160a01b03160361066e5760019150610676565b60010161062a565b50806106da5760405162461bcd60e51b815260206004820152602d60248201527f456c2063726561646f72206465626520657374617220656e206c61206c69737460448201526c61206465206d69656d62726f7360981b606482015260840161023e565b600084846040516106ea9061084a565b6106f5929190610cf9565b604051809103906000f080158015610711573d6000803e3d6000fd5b5060008054600180820183557f290decd9548b62a8d60345a988386fc84ba6bc95484008f6362f93160ef3e56390910180546001600160a01b0319166001600160a01b0385169081179091558252600260205260408220805460ff191690911790559093508391505b84518110156107f2576001600086838151811061079957610799610bc7565b6020908102919091018101516001600160a01b03908116835282820193909352604090910160009081208054600180820183559183529290912090910180546001600160a01b031916928716929092179091550161077a565b50336001600160a01b0316836001600160a01b03167fae4c797921f1018252c8a5cba2e691e90e4b8c67720b1de878318cdb52d2eb7a87874260405161083a93929190610d27565b60405180910390a3505092915050565b611d8580610d5e83390190565b6000806040838503121561086a57600080fd5b50508035926020909101359150565b600081518084526020840193506020830160005b828110156108b45781516001600160a01b031686526020958601959091019060010161088d565b5093949350505050565b6020815260006108d16020830184610879565b9392505050565b6001600160a01b03811681146108ed57600080fd5b50565b60006020828403121561090257600080fd5b81356108d1816108d8565b60005b83811015610928578181015183820152602001610910565b50506000910152565b6000815180845261094981602086016020860161090d565b601f01601f19169290920160200192915050565b6080815260006109706080830187610931565b82810360208401526109828187610879565b604084019590955250506060015292915050565b6000602082840312156109a857600080fd5b5035919050565b600080604083850312156109c257600080fd5b82356109cd816108d8565b946020939093013593505050565b634e487b7160e01b600052604160045260246000fd5b604051601f8201601f1916810167ffffffffffffffff81118282101715610a1a57610a1a6109db565b604052919050565b600067ffffffffffffffff821115610a3c57610a3c6109db565b50601f01601f191660200190565b600067ffffffffffffffff821115610a6457610a646109db565b5060051b60200190565b600082601f830112610a7f57600080fd5b8135610a92610a8d82610a4a565b6109f1565b8082825260208201915060208360051b860101925085831115610ab457600080fd5b602085015b83811015610ada578035610acc816108d8565b835260209283019201610ab9565b5095945050505050565b60008060408385031215610af757600080fd5b823567ffffffffffffffff811115610b0e57600080fd5b8301601f81018513610b1f57600080fd5b8035610b2d610a8d82610a22565b818152866020838501011115610b4257600080fd5b81602084016020830137600060208383010152809450505050602083013567ffffffffffffffff811115610b7557600080fd5b610b8185828601610a6e565b9150509250929050565b634e487b7160e01b600052601160045260246000fd5b8181038181111561035f5761035f610b8b565b8082018082111561035f5761035f610b8b565b634e487b7160e01b600052603260045260246000fd5b600082601f830112610bee57600080fd5b8151610bfc610a8d82610a4a565b8082825260208201915060208360051b860101925085831115610c1e57600080fd5b602085015b83811015610ada578051610c36816108d8565b835260209283019201610c23565b60008060008060808587031215610c5a57600080fd5b845167ffffffffffffffff811115610c7157600080fd5b8501601f81018713610c8257600080fd5b8051610c90610a8d82610a22565b818152886020838501011115610ca557600080fd5b610cb682602083016020860161090d565b809650505050602085015167ffffffffffffffff811115610cd657600080fd5b610ce287828801610bdd565b604087015160609097015195989097509350505050565b604081526000610d0c6040830185610931565b8281036020840152610d1e8185610879565b95945050505050565b606081526000610d3a6060830186610931565b8281036020840152610d4c8186610879565b91505082604083015294935050505056fe608060405234801561001057600080fd5b50604051611d85380380611d8583398101604081905261002f91610377565b6002815110156100865760405162461bcd60e51b815260206004820181905260248201527f53652072657175696572656e20616c206d656e6f732032206d69656d62726f7360448201526064015b60405180910390fd5b60008251116100d75760405162461bcd60e51b815260206004820152601e60248201527f456c206e6f6d627265206e6f20707565646520657374617220766163696f0000604482015260640161007d565b60006100e383826104d8565b50600180546001600160a01b0319163317905560005b81518110156102925760006001600160a01b031682828151811061011f5761011f610596565b60200260200101516001600160a01b0316036101725760405162461bcd60e51b8152602060048201526012602482015271446972656363696f6e20696e76616c69646160701b604482015260640161007d565b6003600083838151811061018857610188610596565b6020908102919091018101516001600160a01b031682528101919091526040016000205460ff16156101f05760405162461bcd60e51b81526020600482015260116024820152704d69656d62726f206475706c696361646f60781b604482015260640161007d565b600282828151811061020457610204610596565b60209081029190910181015182546001808201855560009485529284200180546001600160a01b0319166001600160a01b039092169190911790558351909160039185908590811061025857610258610596565b6020908102919091018101516001600160a01b03168252810191909152604001600020805460ff19169115159190911790556001016100f9565b5050506105ac565b634e487b7160e01b600052604160045260246000fd5b604051601f8201601f191681016001600160401b03811182821017156102d8576102d861029a565b604052919050565b600082601f8301126102f157600080fd5b81516001600160401b0381111561030a5761030a61029a565b8060051b61031a602082016102b0565b9182526020818501810192908101908684111561033657600080fd5b6020860192505b8383101561036d5782516001600160a01b038116811461035c57600080fd5b82526020928301929091019061033d565b9695505050505050565b6000806040838503121561038a57600080fd5b82516001600160401b038111156103a057600080fd5b8301601f810185136103b157600080fd5b80516001600160401b038111156103ca576103ca61029a565b6103dd601f8201601f19166020016102b0565b8181528660208385010111156103f257600080fd5b60005b82811015610411576020818501810151838301820152016103f5565b50600060208383010152809450505050602083015160018060401b0381111561043957600080fd5b610445858286016102e0565b9150509250929050565b600181811c9082168061046357607f821691505b60208210810361048357634e487b7160e01b600052602260045260246000fd5b50919050565b601f8211156104d357806000526020600020601f840160051c810160208510156104b05750805b601f840160051c820191505b818110156104d057600081556001016104bc565b50505b505050565b81516001600160401b038111156104f1576104f161029a565b610505816104ff845461044f565b84610489565b6020601f82116001811461053957600083156105215750848201515b600019600385901b1c1916600184901b1784556104d0565b600084815260208120601f198516915b828110156105695787850151825560209485019460019092019101610549565b50848210156105875786840151600019600387901b60f8161c191681555b50505050600190811b01905550565b634e487b7160e01b600052603260045260246000fd5b6117ca806105bb6000396000f3fe6080604052600436106100f75760003560e01c8063997072f71161008a578063bc903cb811610059578063bc903cb81461032f578063c45a015514610365578063c9d27afe14610385578063d0e30db0146103a757600080fd5b8063997072f7146102a85780639eab5253146102bd5780639f373690146102df578063a230c524146102ff57600080fd5b806312065fe0116100c657806312065fe0146101de57806343859632146101f15780635daf08ca1461024b5780637f98aa711461028357600080fd5b8063013cf08b146101385780630341b59c1461017857806306fdde03146101a65780630c0512e9146101c857600080fd5b366101335760405134815233907fd15c9547ea5c06670c0010ce19bc32d54682a4b3801ece7f3ab0c3f17106b4bb9060200160405180910390a2005b600080fd5b34801561014457600080fd5b50610158610153366004611122565b6103af565b60405161016f9b9a999897969594939291906111bb565b60405180910390f35b34801561018457600080fd5b50610198610193366004611304565b6104af565b60405190815260200161016f565b3480156101b257600080fd5b506101bb610686565b60405161016f9190611356565b3480156101d457600080fd5b5061019860045481565b3480156101ea57600080fd5b5047610198565b3480156101fd57600080fd5b5061023b61020c366004611370565b60008281526005602090815260408083206001600160a01b038516845260080190915290205460ff1692915050565b604051901515815260200161016f565b34801561025757600080fd5b5061026b610266366004611122565b610714565b6040516001600160a01b03909116815260200161016f565b34801561028f57600080fd5b5061029861073e565b60405161016f94939291906113da565b3480156102b457600080fd5b50600254610198565b3480156102c957600080fd5b506102d2610842565b60405161016f9190611413565b3480156102eb57600080fd5b506101986102fa366004611426565b6108a4565b34801561030b57600080fd5b5061023b61031a366004611480565b60036020526000908152604090205460ff1681565b34801561033b57600080fd5b5061034f61034a366004611122565b610ac1565b60405161016f9a9998979695949392919061149d565b34801561037157600080fd5b5060015461026b906001600160a01b031681565b34801561039157600080fd5b506103a56103a0366004611521565b610be1565b005b6103a5610d92565b600560205260009081526040902080546001820154600283018054929360ff8316936101009093046001600160a01b0316929091906103ed9061154b565b80601f01602080910402602001604051908101604052809291908181526020018280546104199061154b565b80156104665780601f1061043b57610100808354040283529160200191610466565b820191906000526020600020905b81548152906001019060200180831161044957829003601f168201915b505050600384015460048501546005860154600687015460078801546009890154600a9099015497986001600160a01b0395861698949750929094169450929160ff909116908b565b3360009081526003602052604081205460ff166104e75760405162461bcd60e51b81526004016104de90611585565b60405180910390fd5b6001600160a01b0382166105325760405162461bcd60e51b8152602060048201526012602482015271446972656363696f6e20696e76616c69646160701b60448201526064016104de565b6001600160a01b03821660009081526003602052604090205460ff161561059b5760405162461bcd60e51b815260206004820152601760248201527f5961206573206d69656d62726f2064656c207661756c7400000000000000000060448201526064016104de565b60008351116105bc5760405162461bcd60e51b81526004016104de906115bc565b60048054600091826105cd83611615565b909155506000818152600560205260409020818155600180820180546001600160a81b03191633610100021790911790559091506002810161060f868261167a565b506005810180546001600160a01b0319166001600160a01b03861617905560098101805460ff1916905542600a82015560405182907f3263432a41f78a4701cc9465f62411ed717ade32290c084135a3dd6b29f4bf2890610674906001903390611739565b60405180910390a25090505b92915050565b600080546106939061154b565b80601f01602080910402602001604051908101604052809291908181526020018280546106bf9061154b565b801561070c5780601f106106e15761010080835404028352916020019161070c565b820191906000526020600020905b8154815290600101906020018083116106ef57829003601f168201915b505050505081565b6002818154811061072457600080fd5b6000918252602090912001546001600160a01b0316905081565b60608060008060006002476004548380546107589061154b565b80601f01602080910402602001604051908101604052809291908181526020018280546107849061154b565b80156107d15780601f106107a6576101008083540402835291602001916107d1565b820191906000526020600020905b8154815290600101906020018083116107b457829003601f168201915b505050505093508280548060200260200160405190810160405280929190818152602001828054801561082d57602002820191906000526020600020905b81546001600160a01b0316815260019091019060200180831161080f575b50505050509250935093509350935090919293565b6060600280548060200260200160405190810160405280929190818152602001828054801561089a57602002820191906000526020600020905b81546001600160a01b0316815260019091019060200180831161087c575b5050505050905090565b3360009081526003602052604081205460ff166108d35760405162461bcd60e51b81526004016104de90611585565b600082116109235760405162461bcd60e51b815260206004820152601b60248201527f456c206d6f6e746f206465626520736572206d61796f7220612030000000000060448201526064016104de565b478211156109735760405162461bcd60e51b815260206004820181905260248201527f466f6e646f7320696e737566696369656e74657320656e20656c207661756c7460448201526064016104de565b6001600160a01b0383166109d45760405162461bcd60e51b815260206004820152602260248201527f446972656363696f6e2064652064657374696e61746172696f20696e76616c69604482015261646160f01b60648201526084016104de565b60008451116109f55760405162461bcd60e51b81526004016104de906115bc565b6004805460009182610a0683611615565b9091555060008181526005602052604090208181556001810180546001600160a81b031916336101000217905590915060028101610a44878261167a565b506003810180546001600160a01b0319166001600160a01b0387161790556004810184905560098101805460ff1916905542600a82015560405182907f3263432a41f78a4701cc9465f62411ed717ade32290c084135a3dd6b29f4bf2890610ab0906000903390611739565b60405180910390a250949350505050565b600081815260056020819052604082208054600182015460038301546004840154948401546006850154600786015460098701546002880180548b9a8b9a60609a8c9a8b9a8b9a8b9a8b9a8b9a9699959860ff808716996001600160a01b0361010090980488169996881697909695169416908790610b3f9061154b565b80601f0160208091040260200160405190810160405280929190818152602001828054610b6b9061154b565b8015610bb85780601f10610b8d57610100808354040283529160200191610bb8565b820191906000526020600020905b815481529060010190602001808311610b9b57829003601f168201915b505050505096509a509a509a509a509a509a509a509a509a509a50509193959799509193959799565b816000808281526005602052604090206009015460ff166002811115610c0957610c0961113b565b14610c565760405162461bcd60e51b815260206004820152601b60248201527f50726f707565737461206e6f20657374612070656e6469656e7465000000000060448201526064016104de565b3360009081526003602052604090205460ff16610c855760405162461bcd60e51b81526004016104de90611585565b6000838152600560209081526040808320338452600881019092529091205460ff1615610cf45760405162461bcd60e51b815260206004820152601f60248201527f59612068617320766f7461646f20656e20657374612070726f7075657374610060448201526064016104de565b3360009081526008820160205260409020805460ff191660011790558215610d3257600681018054906000610d2883611615565b9190505550610d4a565b600781018054906000610d4483611615565b91905055505b6040518315158152339085907f5aaa9aad7433112662b9e5ae23b96ed62b00035f413ab908c55607284e0804e29060200160405180910390a3610d8c84610e52565b50505050565b3360009081526003602052604090205460ff16610dc15760405162461bcd60e51b81526004016104de90611585565b60003411610e1b5760405162461bcd60e51b815260206004820152602160248201527f44656265206465706f736974617220756e206d6f6e746f206d61796f722061206044820152600360fc1b60648201526084016104de565b60405134815233907fd15c9547ea5c06670c0010ce19bc32d54682a4b3801ece7f3ab0c3f17106b4bb9060200160405180910390a2565b60008181526005602052604081206002546007820154600683015492939192610e7b919061175f565b90506000610e8a600284611772565b610e9590600161175f565b905080846006015410610f3a5760098401805460ff191660019081179091558085015460009160ff90911690811115610ed057610ed061113b565b03610ee357610ede85610f93565b610f0a565b60018481015460ff1681811115610efc57610efc61113b565b03610f0a57610f0a8561107a565b60405185907f712ae1383f79ac853f8d882153778e0260ef8f03b504e2866e0593e04d2b291f90600090a2610f8c565b8282148015610f4c5750808460060154105b15610f8c5760098401805460ff1916600217905560405185907fd92fba445edb3153b571e6df782d7a66fd0ce668519273670820ee3a86da0ef490600090a25b5050505050565b60008181526005602052604090206004810154471015610fec5760405162461bcd60e51b8152602060048201526014602482015273466f6e646f7320696e737566696369656e74657360601b60448201526064016104de565b600381015460048201546040516001600160a01b039092169181156108fc0291906000818181858888f1935050505015801561102c573d6000803e3d6000fd5b50600381015460048201546040519081526001600160a01b03909116907f1131c2afe9ce72c59360d085f89bfdd088fcf4a3c93eec6cc5ff42f5d6b0801f9060200160405180910390a25050565b600081815260056020818152604080842092830180546002805460018181019092557f405787fa12a823e0f2b7631cc41b3ba8828b3321ca811111fa75cd3aa3bb5ace0180546001600160a01b0319166001600160a01b039384161790558254821687526003909452828620805460ff191690941790935554905192939116917fb251eb052afc73ffd02ffe85ad79990a8b3fed60d76dbc2fa2fdd7123dffd9149190a25050565b60006020828403121561113457600080fd5b5035919050565b634e487b7160e01b600052602160045260246000fd5b600281106111615761116161113b565b9052565b6000815180845260005b8181101561118b5760208185018101518683018201520161116f565b506000602082860101526020601f19601f83011685010191505092915050565b600381106111615761116161113b565b8b81526111cb602082018c611151565b6001600160a01b038a166040820152610160606082018190526000906111f39083018b611165565b6001600160a01b038a8116608085015260a084018a9052881660c084015260e08301879052610100830186905290506112306101208301856111ab565b826101408301529c9b505050505050505050505050565b634e487b7160e01b600052604160045260246000fd5b600082601f83011261126e57600080fd5b813567ffffffffffffffff81111561128857611288611247565b604051601f8201601f19908116603f0116810167ffffffffffffffff811182821017156112b7576112b7611247565b6040528181528382016020018510156112cf57600080fd5b816020850160208301376000918101602001919091529392505050565b6001600160a01b038116811461130157600080fd5b50565b6000806040838503121561131757600080fd5b823567ffffffffffffffff81111561132e57600080fd5b61133a8582860161125d565b925050602083013561134b816112ec565b809150509250929050565b6020815260006113696020830184611165565b9392505050565b6000806040838503121561138357600080fd5b82359150602083013561134b816112ec565b600081518084526020840193506020830160005b828110156113d05781516001600160a01b03168652602095860195909101906001016113a9565b5093949350505050565b6080815260006113ed6080830187611165565b82810360208401526113ff8187611395565b604084019590955250506060015292915050565b6020815260006113696020830184611395565b60008060006060848603121561143b57600080fd5b833567ffffffffffffffff81111561145257600080fd5b61145e8682870161125d565b935050602084013561146f816112ec565b929592945050506040919091013590565b60006020828403121561149257600080fd5b8135611369816112ec565b8a81526114ad602082018b611151565b6001600160a01b0389166040820152610140606082018190526000906114d59083018a611165565b6001600160a01b03898116608085015260a08401899052871660c084015260e08301869052610100830185905290506115126101208301846111ab565b9b9a5050505050505050505050565b6000806040838503121561153457600080fd5b823591506020830135801515811461134b57600080fd5b600181811c9082168061155f57607f821691505b60208210810361157f57634e487b7160e01b600052602260045260246000fd5b50919050565b6020808252601d908201527f4e6f2065726573206d69656d62726f2064652065737465207661756c74000000604082015260600190565b60208082526023908201527f4c61206465736372697063696f6e206e6f20707565646520657374617220766160408201526263696160e81b606082015260800190565b634e487b7160e01b600052601160045260246000fd5b600060018201611627576116276115ff565b5060010190565b601f82111561167557806000526020600020601f840160051c810160208510156116555750805b601f840160051c820191505b81811015610f8c5760008155600101611661565b505050565b815167ffffffffffffffff81111561169457611694611247565b6116a8816116a2845461154b565b8461162e565b6020601f8211600181146116dc57600083156116c45750848201515b600019600385901b1c1916600184901b178455610f8c565b600084815260208120601f198516915b8281101561170c57878501518255602094850194600190920191016116ec565b508482101561172a5786840151600019600387901b60f8161c191681555b50505050600190811b01905550565b604081016117478285611151565b6001600160a01b039290921660209190910152919050565b80820180821115610680576106806115ff565b60008261178f57634e487b7160e01b600052601260045260246000fd5b50049056fea2646970667358221220efbac144706968dd23add0c622c295179b96916cd852f10d106bebd08567449864736f6c634300081c0033a264697066735822122051b71aaa261edcbb86dee4b4fce0c7360254889bfc5aebfc037fee11a71a102464736f6c634300081c0033",
  "linkReferences": {},
  "deployedLinkReferences": {}
}