{
  "_format": "hh-sol-artifact-1",
  "contractName": "MultiVaultFactory",
  "sourceName": "contracts/MultiVaultFactory.sol",
  "abi": [
    {
      "anonymous": false,
      "inputs": [
        {
          "indexed": true,
          "internalType": "address",
          "name": "vaultAddress",
          "type": "address"
        },
        {
          "indexed": false,
          "internalType": "string",
          "name": "name",
          "type": "string"
        },
        {
          "indexed": false,
          "internalType": "address[]",
          "name": "members",
          "type": "address[]"
        },
        {
          "indexed": true,
          "internalType": "address",
          "name": "creator",
          "type": "address"
        },
        {
          "indexed": false,
          "internalType": "uint256",
          "name": "timestamp",
          "type": "uint256"
        }
      ],
      "name": "VaultCreated",
      "type": "event"
    },
    {
      "inputs": [
        {
          "internalType": "uint256",
          "name": "",
          "type": "uint256"
        }
      ],
      "name": "allVaults",
      "outputs": [
        {
          "internalType": "address",
          "name": "",
          "type": "address"
        }
      ],
      "stateMutability": "view",
      "type": "function"
    },
    {
      "inputs": [
        {
          "internalType": "string",
          "name": "_name",
          "type": "string"
        },
        {
          "internalType": "address[]",
          "name": "_members",
          "type": "address[]"
        }
      ],
      "name": "createVault",
      "outputs": [
        {
          "internalType": "address",
          "name": "vaultAddress",
          "type": "address"
        }
      ],
      "stateMutability": "nonpayable",
      "type": "function"
    },
    {
      "inputs": [],
      "name": "getAllVaults",
      "outputs": [
        {
          "internalType": "address[]",
          "name": "",
          "type": "address[]"
        }
      ],
      "stateMutability": "view",
      "type": "function"
    },
    {
      "inputs": [],
      "name": "getTotalVaults",
      "outputs": [
        {
          "internalType": "uint256",
          "name": "",
          "type": "uint256"
        }
      ],
      "stateMutability": "view",
      "type": "function"
    },
    {
      "inputs": [
        {
          "internalType": "address",
          "name": "_user",
          "type": "address"
        }
      ],
      "name": "getUserVaultCount",
      "outputs": [
        {
          "internalType": "uint256",
          "name": "",
          "type": "uint256"
        }
      ],
      "stateMutability": "view",
      "type": "function"
    },
    {
      "inputs": [
        {
          "internalType": "address",
          "name": "_user",
          "type": "address"
        }
      ],
      "name": "getUserVaults",
      "outputs": [
        {
          "internalType": "address[]",
          "name": "",
          "type": "address[]"
        }
      ],
      "stateMutability": "view",
      "type": "function"
    },
    {
      "inputs": [
        {
          "internalType": "address",
          "name": "_vaultAddress",
          "type": "address"
        }
      ],
      "name": "getVaultInfo",
      "outputs": [
        {
          "internalType": "string",
          "name": "name",
          "type": "string"
        },
        {
          "internalType": "address[]",
          "name": "members",
          "type": "address[]"
        },
        {
          "internalType": "uint256",
          "name": "balance",
          "type": "uint256"
        },
        {
          "internalType": "uint256",
          "name": "proposalCounter",
          "type": "uint256"
        }
      ],
      "stateMutability": "view",
      "type": "function"
    },
    {
      "inputs": [
        {
          "internalType": "uint256",
          "name": "_start",
          "type": "uint256"
        },
        {
          "internalType": "uint256",
          "name": "_end",
          "type": "uint256"
        }
      ],
      "name": "getVaultsByRange",
      "outputs": [
        {
          "internalType": "address[]",
          "name": "",
          "type": "address[]"
        }
      ],
      "stateMutability": "view",
      "type": "function"
    },
    {
      "inputs": [
        {
          "internalType": "address",
          "name": "_vault",
          "type": "address"
        }
      ],
      "name": "isValidVault",
      "outputs": [
        {
          "internalType": "bool",
          "name": "",
          "type": "bool"
        }
      ],
      "stateMutability": "view",
      "type": "function"
    },
    {
      "inputs": [
        {
          "internalType": "address",
          "name": "",
          "type": "address"
        }
      ],
      "name": "isVault",
      "outputs": [
        {
          "internalType": "bool",
          "name": "",
          "type": "bool"
        }
      ],
      "stateMutability": "view",
      "type": "function"
    },
    {
      "inputs": [
        {
          "internalType": "address",
          "name": "",
          "type": "address"
        },
        {
          "internalType": "uint256",
          "name": "",
          "type": "uint256"
        }
      ],
      "name": "userVaults",
      "outputs": [
        {
          "internalType": "address",
          "name": "",
          "type": "address"
        }
      ],
      "stateMutability": "view",
      "type": "function"
    }
  ],
  "bytecode": "0x6080604052348015600f57600080fd5b50612afd8061001f6000396000f3fe608060405234801561001057600080fd5b50600436106100a95760003560e01c806390229af71161007157806390229af7146101715780639094a91e1461019457806397331bf9146101bf5780639c841fef146101c7578063e7f3c69c146101da578063fc4e5007146101ed57600080fd5b80634d93ef71146100ae5780635486f100146100d757806364219450146100e9578063652b9b4114610125578063828edbe814610148575b600080fd5b6100c16100bc36600461083d565b610200565b6040516100ce91906108a4565b60405180910390f35b6000545b6040519081526020016100ce565b6101156100f73660046108d6565b6001600160a01b031660009081526002602052604090205460ff1690565b60405190151581526020016100ce565b6101156101333660046108d6565b60026020526000908152604090205460ff1681565b6100db6101563660046108d6565b6001600160a01b031660009081526001602052604090205490565b61018461017f3660046108d6565b610362565b6040516100ce9493929190610943565b6101a76101a236600461097c565b610440565b6040516001600160a01b0390911681526020016100ce565b6100c161046a565b6101a76101d5366004610995565b6104cc565b6100c16101e83660046108d6565b610504565b6101a76101fb366004610aca565b61057a565b60608183106102465760405162461bcd60e51b815260206004820152600d60248201526c496e76616c69642072616e676560981b60448201526064015b60405180910390fd5b60005482111561028b5760405162461bcd60e51b815260206004820152601060248201526f456e64206f7574206f662072616e676560801b604482015260640161023d565b60006102978484610b87565b905060008167ffffffffffffffff8111156102b4576102b46109c1565b6040519080825280602002602001820160405280156102dd578160200160208202803683370190505b50905060005b828110156103575760006102f78288610b9a565b8154811061030757610307610bad565b9060005260206000200160009054906101000a90046001600160a01b031682828151811061033757610337610bad565b6001600160a01b03909216602092830291909101909101526001016102e3565b509150505b92915050565b6001600160a01b0381166000908152600260205260408120546060918291819060ff166103c55760405162461bcd60e51b8152602060048201526011602482015270139bdd0818481d985b1a59081d985d5b1d607a1b604482015260640161023d565b6000859050806001600160a01b0316637f98aa716040518163ffffffff1660e01b8152600401600060405180830381865afa158015610408573d6000803e3d6000fd5b505050506040513d6000823e601f3d908101601f191682016040526104309190810190610c2a565b9450945094509450509193509193565b6000818154811061045057600080fd5b6000918252602090912001546001600160a01b0316905081565b606060008054806020026020016040519081016040528092919081815260200182805480156104c257602002820191906000526020600020905b81546001600160a01b031681526001909101906020018083116104a4575b5050505050905090565b600160205281600052604060002081815481106104e857600080fd5b6000918252602090912001546001600160a01b03169150829050565b6001600160a01b03811660009081526001602090815260409182902080548351818402810184019094528084526060939283018282801561056e57602002820191906000526020600020905b81546001600160a01b03168152600190910190602001808311610550575b50505050509050919050565b60006002825110156105ce5760405162461bcd60e51b815260206004820152601b60248201527f4174206c656173742032206d656d626572732072657175697265640000000000604482015260640161023d565b60008351116106165760405162461bcd60e51b81526020600482015260146024820152734e616d652063616e6e6f7420626520656d70747960601b604482015260640161023d565b6000805b835181101561066657336001600160a01b031684828151811061063f5761063f610bad565b60200260200101516001600160a01b03160361065e5760019150610666565b60010161061a565b50806106c05760405162461bcd60e51b815260206004820152602360248201527f43726561746f72206d75737420626520696e20746865206d656d62657273206c6044820152621a5cdd60ea1b606482015260840161023d565b600084846040516106d090610830565b6106db929190610cdf565b604051809103906000f0801580156106f7573d6000803e3d6000fd5b5060008054600180820183557f290decd9548b62a8d60345a988386fc84ba6bc95484008f6362f93160ef3e56390910180546001600160a01b0319166001600160a01b0385169081179091558252600260205260408220805460ff191690911790559093508391505b84518110156107d8576001600086838151811061077f5761077f610bad565b6020908102919091018101516001600160a01b03908116835282820193909352604090910160009081208054600180820183559183529290912090910180546001600160a01b0319169287169290921790915501610760565b50336001600160a01b0316836001600160a01b03167fae4c797921f1018252c8a5cba2e691e90e4b8c67720b1de878318cdb52d2eb7a87874260405161082093929190610d0d565b60405180910390a3505092915050565b611d8480610d4483390190565b6000806040838503121561085057600080fd5b50508035926020909101359150565b600081518084526020840193506020830160005b8281101561089a5781516001600160a01b0316865260209586019590910190600101610873565b5093949350505050565b6020815260006108b7602083018461085f565b9392505050565b6001600160a01b03811681146108d357600080fd5b50565b6000602082840312156108e857600080fd5b81356108b7816108be565b60005b8381101561090e5781810151838201526020016108f6565b50506000910152565b6000815180845261092f8160208601602086016108f3565b601f01601f19169290920160200192915050565b6080815260006109566080830187610917565b8281036020840152610968818761085f565b604084019590955250506060015292915050565b60006020828403121561098e57600080fd5b5035919050565b600080604083850312156109a857600080fd5b82356109b3816108be565b946020939093013593505050565b634e487b7160e01b600052604160045260246000fd5b604051601f8201601f1916810167ffffffffffffffff81118282101715610a0057610a006109c1565b604052919050565b600067ffffffffffffffff821115610a2257610a226109c1565b50601f01601f191660200190565b600067ffffffffffffffff821115610a4a57610a4a6109c1565b5060051b60200190565b600082601f830112610a6557600080fd5b8135610a78610a7382610a30565b6109d7565b8082825260208201915060208360051b860101925085831115610a9a57600080fd5b602085015b83811015610ac0578035610ab2816108be565b835260209283019201610a9f565b5095945050505050565b60008060408385031215610add57600080fd5b823567ffffffffffffffff811115610af457600080fd5b8301601f81018513610b0557600080fd5b8035610b13610a7382610a08565b818152866020838501011115610b2857600080fd5b81602084016020830137600060208383010152809450505050602083013567ffffffffffffffff811115610b5b57600080fd5b610b6785828601610a54565b9150509250929050565b634e487b7160e01b600052601160045260246000fd5b8181038181111561035c5761035c610b71565b8082018082111561035c5761035c610b71565b634e487b7160e01b600052603260045260246000fd5b600082601f830112610bd457600080fd5b8151610be2610a7382610a30565b8082825260208201915060208360051b860101925085831115610c0457600080fd5b602085015b83811015610ac0578051610c1c816108be565b835260209283019201610c09565b60008060008060808587031215610c4057600080fd5b845167ffffffffffffffff811115610c5757600080fd5b8501601f81018713610c6857600080fd5b8051610c76610a7382610a08565b818152886020838501011115610c8b57600080fd5b610c9c8260208301602086016108f3565b809650505050602085015167ffffffffffffffff811115610cbc57600080fd5b610cc887828801610bc3565b604087015160609097015195989097509350505050565b604081526000610cf26040830185610917565b8281036020840152610d04818561085f565b95945050505050565b606081526000610d206060830186610917565b8281036020840152610d32818661085f565b91505082604083015294935050505056fe608060405234801561001057600080fd5b50604051611d84380380611d8483398101604081905261002f91610373565b6002815110156100865760405162461bcd60e51b815260206004820152601b60248201527f4174206c656173742032206d656d62657273207265717569726564000000000060448201526064015b60405180910390fd5b60008251116100d75760405162461bcd60e51b815260206004820152601460248201527f4e616d652063616e6e6f7420626520656d707479000000000000000000000000604482015260640161007d565b60006100e383826104d4565b50600180546001600160a01b0319163317905560005b815181101561028e5760006001600160a01b031682828151811061011f5761011f610592565b60200260200101516001600160a01b03160361016f5760405162461bcd60e51b815260206004820152600f60248201526e496e76616c6964206164647265737360881b604482015260640161007d565b6003600083838151811061018557610185610592565b6020908102919091018101516001600160a01b031682528101919091526040016000205460ff16156101ec5760405162461bcd60e51b815260206004820152601060248201526f223ab83634b1b0ba329036b2b6b132b960811b604482015260640161007d565b600282828151811061020057610200610592565b60209081029190910181015182546001808201855560009485529284200180546001600160a01b0319166001600160a01b039092169190911790558351909160039185908590811061025457610254610592565b6020908102919091018101516001600160a01b03168252810191909152604001600020805460ff19169115159190911790556001016100f9565b5050506105a8565b634e487b7160e01b600052604160045260246000fd5b604051601f8201601f191681016001600160401b03811182821017156102d4576102d4610296565b604052919050565b600082601f8301126102ed57600080fd5b81516001600160401b0381111561030657610306610296565b8060051b610316602082016102ac565b9182526020818501810192908101908684111561033257600080fd5b6020860192505b838310156103695782516001600160a01b038116811461035857600080fd5b825260209283019290910190610339565b9695505050505050565b6000806040838503121561038657600080fd5b82516001600160401b0381111561039c57600080fd5b8301601f810185136103ad57600080fd5b80516001600160401b038111156103c6576103c6610296565b6103d9601f8201601f19166020016102ac565b8181528660208385010111156103ee57600080fd5b60005b8281101561040d576020818501810151838301820152016103f1565b50600060208383010152809450505050602083015160018060401b0381111561043557600080fd5b610441858286016102dc565b9150509250929050565b600181811c9082168061045f57607f821691505b60208210810361047f57634e487b7160e01b600052602260045260246000fd5b50919050565b601f8211156104cf57806000526020600020601f840160051c810160208510156104ac5750805b601f840160051c820191505b818110156104cc57600081556001016104b8565b50505b505050565b81516001600160401b038111156104ed576104ed610296565b610501816104fb845461044b565b84610485565b6020601f821160018114610535576000831561051d5750848201515b600019600385901b1c1916600184901b1784556104cc565b600084815260208120601f198516915b828110156105655787850151825560209485019460019092019101610545565b50848210156105835786840151600019600387901b60f8161c191681555b50505050600190811b01905550565b634e487b7160e01b600052603260045260246000fd5b6117cd806105b76000396000f3fe6080604052600436106100f75760003560e01c8063997072f71161008a578063bc903cb811610059578063bc903cb81461032f578063c45a015514610365578063c9d27afe14610385578063d0e30db0146103a757600080fd5b8063997072f7146102a85780639eab5253146102bd5780639f373690146102df578063a230c524146102ff57600080fd5b806312065fe0116100c657806312065fe0146101de57806343859632146101f15780635daf08ca1461024b5780637f98aa711461028357600080fd5b8063013cf08b146101385780630341b59c1461017857806306fdde03146101a65780630c0512e9146101c857600080fd5b366101335760405134815233907fd15c9547ea5c06670c0010ce19bc32d54682a4b3801ece7f3ab0c3f17106b4bb9060200160405180910390a2005b600080fd5b34801561014457600080fd5b50610158610153366004611168565b6103af565b60405161016f9b9a99989796959493929190611201565b60405180910390f35b34801561018457600080fd5b5061019861019336600461134a565b6104af565b60405190815260200161016f565b3480156101b257600080fd5b506101bb6106b3565b60405161016f919061139c565b3480156101d457600080fd5b5061019860045481565b3480156101ea57600080fd5b5047610198565b3480156101fd57600080fd5b5061023b61020c3660046113b6565b60008281526005602090815260408083206001600160a01b038516845260080190915290205460ff1692915050565b604051901515815260200161016f565b34801561025757600080fd5b5061026b610266366004611168565b610741565b6040516001600160a01b03909116815260200161016f565b34801561028f57600080fd5b5061029861076b565b60405161016f9493929190611420565b3480156102b457600080fd5b50600254610198565b3480156102c957600080fd5b506102d261086f565b60405161016f9190611459565b3480156102eb57600080fd5b506101986102fa36600461146c565b6108d1565b34801561030b57600080fd5b5061023b61031a3660046114c6565b60036020526000908152604090205460ff1681565b34801561033b57600080fd5b5061034f61034a366004611168565b610b13565b60405161016f9a999897969594939291906114e3565b34801561037157600080fd5b5060015461026b906001600160a01b031681565b34801561039157600080fd5b506103a56103a0366004611567565b610c33565b005b6103a5610de4565b600560205260009081526040902080546001820154600283018054929360ff8316936101009093046001600160a01b0316929091906103ed90611591565b80601f016020809104026020016040519081016040528092919081815260200182805461041990611591565b80156104665780601f1061043b57610100808354040283529160200191610466565b820191906000526020600020905b81548152906001019060200180831161044957829003601f168201915b505050600384015460048501546005860154600687015460078801546009890154600a9099015497986001600160a01b0395861698949750929094169450929160ff909116908b565b3360009081526003602052604081205460ff166104e75760405162461bcd60e51b81526004016104de906115cb565b60405180910390fd5b6001600160a01b03821661052f5760405162461bcd60e51b815260206004820152600f60248201526e496e76616c6964206164647265737360881b60448201526064016104de565b6001600160a01b03821660009081526003602052604090205460ff16156105985760405162461bcd60e51b815260206004820152601d60248201527f416c72656164792061206d656d626572206f6620746865207661756c7400000060448201526064016104de565b60008351116105e95760405162461bcd60e51b815260206004820152601b60248201527f4465736372697074696f6e2063616e6e6f7420626520656d707479000000000060448201526064016104de565b60048054600091826105fa83611618565b909155506000818152600560205260409020818155600180820180546001600160a81b03191633610100021790911790559091506002810161063c868261167d565b506005810180546001600160a01b0319166001600160a01b03861617905560098101805460ff1916905542600a82015560405182907f3263432a41f78a4701cc9465f62411ed717ade32290c084135a3dd6b29f4bf28906106a190600190339061173c565b60405180910390a25090505b92915050565b600080546106c090611591565b80601f01602080910402602001604051908101604052809291908181526020018280546106ec90611591565b80156107395780601f1061070e57610100808354040283529160200191610739565b820191906000526020600020905b81548152906001019060200180831161071c57829003601f168201915b505050505081565b6002818154811061075157600080fd5b6000918252602090912001546001600160a01b0316905081565b606080600080600060024760045483805461078590611591565b80601f01602080910402602001604051908101604052809291908181526020018280546107b190611591565b80156107fe5780601f106107d3576101008083540402835291602001916107fe565b820191906000526020600020905b8154815290600101906020018083116107e157829003601f168201915b505050505093508280548060200260200160405190810160405280929190818152602001828054801561085a57602002820191906000526020600020905b81546001600160a01b0316815260019091019060200180831161083c575b50505050509250935093509350935090919293565b606060028054806020026020016040519081016040528092919081815260200182805480156108c757602002820191906000526020600020905b81546001600160a01b031681526001909101906020018083116108a9575b5050505050905090565b3360009081526003602052604081205460ff166109005760405162461bcd60e51b81526004016104de906115cb565b600082116109505760405162461bcd60e51b815260206004820152601d60248201527f416d6f756e74206d7573742062652067726561746572207468616e203000000060448201526064016104de565b478211156109a05760405162461bcd60e51b815260206004820152601b60248201527f496e73756666696369656e742066756e647320696e207661756c74000000000060448201526064016104de565b6001600160a01b0383166109f65760405162461bcd60e51b815260206004820152601960248201527f496e76616c696420726563697069656e7420616464726573730000000000000060448201526064016104de565b6000845111610a475760405162461bcd60e51b815260206004820152601b60248201527f4465736372697074696f6e2063616e6e6f7420626520656d707479000000000060448201526064016104de565b6004805460009182610a5883611618565b9091555060008181526005602052604090208181556001810180546001600160a81b031916336101000217905590915060028101610a96878261167d565b506003810180546001600160a01b0319166001600160a01b0387161790556004810184905560098101805460ff1916905542600a82015560405182907f3263432a41f78a4701cc9465f62411ed717ade32290c084135a3dd6b29f4bf2890610b0290600090339061173c565b60405180910390a250949350505050565b600081815260056020819052604082208054600182015460038301546004840154948401546006850154600786015460098701546002880180548b9a8b9a60609a8c9a8b9a8b9a8b9a8b9a8b9a9699959860ff808716996001600160a01b0361010090980488169996881697909695169416908790610b9190611591565b80601f0160208091040260200160405190810160405280929190818152602001828054610bbd90611591565b8015610c0a5780601f10610bdf57610100808354040283529160200191610c0a565b820191906000526020600020905b815481529060010190602001808311610bed57829003601f168201915b505050505096509a509a509a509a509a509a509a509a509a509a50509193959799509193959799565b816000808281526005602052604090206009015460ff166002811115610c5b57610c5b611181565b14610ca85760405162461bcd60e51b815260206004820152601760248201527f50726f706f73616c206973206e6f742070656e64696e6700000000000000000060448201526064016104de565b3360009081526003602052604090205460ff16610cd75760405162461bcd60e51b81526004016104de906115cb565b6000838152600560209081526040808320338452600881019092529091205460ff1615610d465760405162461bcd60e51b815260206004820152601e60248201527f416c726561647920766f746564206f6e20746869732070726f706f73616c000060448201526064016104de565b3360009081526008820160205260409020805460ff191660011790558215610d8457600681018054906000610d7a83611618565b9190505550610d9c565b600781018054906000610d9683611618565b91905055505b6040518315158152339085907f5aaa9aad7433112662b9e5ae23b96ed62b00035f413ab908c55607284e0804e29060200160405180910390a3610dde84610e9a565b50505050565b3360009081526003602052604090205460ff16610e135760405162461bcd60e51b81526004016104de906115cb565b60003411610e635760405162461bcd60e51b815260206004820152601860248201527f4d757374206465706f736974206d6f7265207468616e2030000000000000000060448201526064016104de565b60405134815233907fd15c9547ea5c06670c0010ce19bc32d54682a4b3801ece7f3ab0c3f17106b4bb9060200160405180910390a2565b60008181526005602052604081206002546007820154600683015492939192610ec39190611762565b90506000610ed2600284611775565b610edd906001611762565b905080846006015410610f825760098401805460ff191660019081179091558085015460009160ff90911690811115610f1857610f18611181565b03610f2b57610f2685610fdb565b610f52565b60018481015460ff1681811115610f4457610f44611181565b03610f5257610f52856110c0565b60405185907f712ae1383f79ac853f8d882153778e0260ef8f03b504e2866e0593e04d2b291f90600090a2610fd4565b8282148015610f945750808460060154105b15610fd45760098401805460ff1916600217905560405185907fd92fba445edb3153b571e6df782d7a66fd0ce668519273670820ee3a86da0ef490600090a25b5050505050565b600081815260056020526040902060048101544710156110325760405162461bcd60e51b8152602060048201526012602482015271496e73756666696369656e742066756e647360701b60448201526064016104de565b600381015460048201546040516001600160a01b039092169181156108fc0291906000818181858888f19350505050158015611072573d6000803e3d6000fd5b50600381015460048201546040519081526001600160a01b03909116907f1131c2afe9ce72c59360d085f89bfdd088fcf4a3c93eec6cc5ff42f5d6b0801f9060200160405180910390a25050565b600081815260056020818152604080842092830180546002805460018181019092557f405787fa12a823e0f2b7631cc41b3ba8828b3321ca811111fa75cd3aa3bb5ace0180546001600160a01b0319166001600160a01b039384161790558254821687526003909452828620805460ff191690941790935554905192939116917fb251eb052afc73ffd02ffe85ad79990a8b3fed60d76dbc2fa2fdd7123dffd9149190a25050565b60006020828403121561117a57600080fd5b5035919050565b634e487b7160e01b600052602160045260246000fd5b600281106111a7576111a7611181565b9052565b6000815180845260005b818110156111d1576020818501810151868301820152016111b5565b506000602082860101526020601f19601f83011685010191505092915050565b600381106111a7576111a7611181565b8b8152611211602082018c611197565b6001600160a01b038a166040820152610160606082018190526000906112399083018b6111ab565b6001600160a01b038a8116608085015260a084018a9052881660c084015260e08301879052610100830186905290506112766101208301856111f1565b826101408301529c9b505050505050505050505050565b634e487b7160e01b600052604160045260246000fd5b600082601f8301126112b457600080fd5b813567ffffffffffffffff8111156112ce576112ce61128d565b604051601f8201601f19908116603f0116810167ffffffffffffffff811182821017156112fd576112fd61128d565b60405281815283820160200185101561131557600080fd5b816020850160208301376000918101602001919091529392505050565b6001600160a01b038116811461134757600080fd5b50565b6000806040838503121561135d57600080fd5b823567ffffffffffffffff81111561137457600080fd5b611380858286016112a3565b925050602083013561139181611332565b809150509250929050565b6020815260006113af60208301846111ab565b9392505050565b600080604083850312156113c957600080fd5b82359150602083013561139181611332565b600081518084526020840193506020830160005b828110156114165781516001600160a01b03168652602095860195909101906001016113ef565b5093949350505050565b60808152600061143360808301876111ab565b828103602084015261144581876113db565b604084019590955250506060015292915050565b6020815260006113af60208301846113db565b60008060006060848603121561148157600080fd5b833567ffffffffffffffff81111561149857600080fd5b6114a4868287016112a3565b93505060208401356114b581611332565b929592945050506040919091013590565b6000602082840312156114d857600080fd5b81356113af81611332565b8a81526114f3602082018b611197565b6001600160a01b03891660408201526101406060820181905260009061151b9083018a6111ab565b6001600160a01b03898116608085015260a08401899052871660c084015260e08301869052610100830185905290506115586101208301846111f1565b9b9a5050505050505050505050565b6000806040838503121561157a57600080fd5b823591506020830135801515811461139157600080fd5b600181811c908216806115a557607f821691505b6020821081036115c557634e487b7160e01b600052602260045260246000fd5b50919050565b6020808252601a908201527f4e6f742061206d656d626572206f662074686973207661756c74000000000000604082015260600190565b634e487b7160e01b600052601160045260246000fd5b60006001820161162a5761162a611602565b5060010190565b601f82111561167857806000526020600020601f840160051c810160208510156116585750805b601f840160051c820191505b81811015610fd45760008155600101611664565b505050565b815167ffffffffffffffff8111156116975761169761128d565b6116ab816116a58454611591565b84611631565b6020601f8211600181146116df57600083156116c75750848201515b600019600385901b1c1916600184901b178455610fd4565b600084815260208120601f198516915b8281101561170f57878501518255602094850194600190920191016116ef565b508482101561172d5786840151600019600387901b60f8161c191681555b50505050600190811b01905550565b6040810161174a8285611197565b6001600160a01b039290921660209190910152919050565b808201808211156106ad576106ad611602565b60008261179257634e487b7160e01b600052601260045260246000fd5b50049056fea2646970667358221220d99084c09796148b8964ed52af67c476653dfabfad3609befd3cd71ee10a1b8164736f6c634300081c0033a2646970667358221220d6249b1a885fd2faf74fa4dd350df3820bdd0839abe04a2049dd0ca06059829964736f6c634300081c0033",
  "linkReferences": {},
  "deployedLinkReferences": {}
}